{
  "_format": "hh-sol-artifact-1",
  "contractName": "Prescription",
  "sourceName": "contracts/Prescription.sol",
  "abi": [
    {
      "inputs": [
        {
          "internalType": "string",
          "name": "details",
          "type": "string"
        },
        {
          "internalType": "uint256",
          "name": "refID",
          "type": "uint256"
        }
      ],
      "name": "addPrescription",
      "outputs": [],
      "stateMutability": "nonpayable",
      "type": "function"
    },
    {
      "inputs": [],
      "name": "getAllPrescription",
      "outputs": [
        {
          "components": [
            {
              "internalType": "string",
              "name": "details",
              "type": "string"
            },
            {
              "internalType": "uint256",
              "name": "refID",
              "type": "uint256"
            }
          ],
          "internalType": "struct Prescription.PrescriptionDetail[]",
          "name": "",
          "type": "tuple[]"
        }
      ],
      "stateMutability": "view",
      "type": "function"
    },
    {
      "inputs": [
        {
          "internalType": "uint256",
          "name": "",
          "type": "uint256"
        }
      ],
      "name": "prescriptionArray",
      "outputs": [
        {
          "internalType": "string",
          "name": "details",
          "type": "string"
        },
        {
          "internalType": "uint256",
          "name": "refID",
          "type": "uint256"
        }
      ],
      "stateMutability": "view",
      "type": "function"
    },
    {
      "inputs": [
        {
          "internalType": "uint256",
          "name": "",
          "type": "uint256"
        }
      ],
      "name": "prescriptions",
      "outputs": [
        {
          "internalType": "string",
          "name": "details",
          "type": "string"
        },
        {
          "internalType": "uint256",
          "name": "refID",
          "type": "uint256"
        }
      ],
      "stateMutability": "view",
      "type": "function"
    }
  ],
  "bytecode": "0x608060405234801561001057600080fd5b50610951806100206000396000f3fe608060405234801561001057600080fd5b506004361061004c5760003560e01c806331dfc91b146100515780635d6028e6146100825780637d484675146100a05780639902e8f6146100d1575b600080fd5b61006b600480360381019061006691906104aa565b6100ed565b60405161007992919061057f565b60405180910390f35b61008a610199565b6040516100979190610707565b60405180910390f35b6100ba60048036038101906100b591906104aa565b610294565b6040516100c892919061057f565b60405180910390f35b6100eb60048036038101906100e6919061085e565b610350565b005b6000602052806000526040600020600091509050806000018054610110906108e9565b80601f016020809104026020016040519081016040528092919081815260200182805461013c906108e9565b80156101895780601f1061015e57610100808354040283529160200191610189565b820191906000526020600020905b81548152906001019060200180831161016c57829003601f168201915b5050505050908060010154905082565b60606001805480602002602001604051908101604052809291908181526020016000905b8282101561028b57838290600052602060002090600202016040518060400160405290816000820180546101f0906108e9565b80601f016020809104026020016040519081016040528092919081815260200182805461021c906108e9565b80156102695780601f1061023e57610100808354040283529160200191610269565b820191906000526020600020905b81548152906001019060200180831161024c57829003601f168201915b50505050508152602001600182015481525050815260200190600101906101bd565b50505050905090565b600181815481106102a457600080fd5b90600052602060002090600202016000915090508060000180546102c7906108e9565b80601f01602080910402602001604051908101604052809291908181526020018280546102f3906108e9565b80156103405780601f1061031557610100808354040283529160200191610340565b820191906000526020600020905b81548152906001019060200180831161032357829003601f168201915b5050505050908060010154905082565b6001604051806040016040528084815260200183815250908060018154018082558091505060019003906000526020600020906002020160009091909190915060008201518160000190805190602001906103ac9291906103bd565b506020820151816001015550505050565b8280546103c9906108e9565b90600052602060002090601f0160209004810192826103eb5760008555610432565b82601f1061040457805160ff1916838001178555610432565b82800160010185558215610432579182015b82811115610431578251825591602001919060010190610416565b5b50905061043f9190610443565b5090565b5b8082111561045c576000816000905550600101610444565b5090565b6000604051905090565b600080fd5b600080fd5b6000819050919050565b61048781610474565b811461049257600080fd5b50565b6000813590506104a48161047e565b92915050565b6000602082840312156104c0576104bf61046a565b5b60006104ce84828501610495565b91505092915050565b600081519050919050565b600082825260208201905092915050565b60005b838110156105115780820151818401526020810190506104f6565b83811115610520576000848401525b50505050565b6000601f19601f8301169050919050565b6000610542826104d7565b61054c81856104e2565b935061055c8185602086016104f3565b61056581610526565b840191505092915050565b61057981610474565b82525050565b600060408201905081810360008301526105998185610537565b90506105a86020830184610570565b9392505050565b600081519050919050565b600082825260208201905092915050565b6000819050602082019050919050565b600082825260208201905092915050565b60006105f7826104d7565b61060181856105db565b93506106118185602086016104f3565b61061a81610526565b840191505092915050565b61062e81610474565b82525050565b6000604083016000830151848203600086015261065182826105ec565b91505060208301516106666020860182610625565b508091505092915050565b600061067d8383610634565b905092915050565b6000602082019050919050565b600061069d826105af565b6106a781856105ba565b9350836020820285016106b9856105cb565b8060005b858110156106f557848403895281516106d68582610671565b94506106e183610685565b925060208a019950506001810190506106bd565b50829750879550505050505092915050565b600060208201905081810360008301526107218184610692565b905092915050565b600080fd5b600080fd5b7f4e487b7100000000000000000000000000000000000000000000000000000000600052604160045260246000fd5b61076b82610526565b810181811067ffffffffffffffff8211171561078a57610789610733565b5b80604052505050565b600061079d610460565b90506107a98282610762565b919050565b600067ffffffffffffffff8211156107c9576107c8610733565b5b6107d282610526565b9050602081019050919050565b82818337600083830152505050565b60006108016107fc846107ae565b610793565b90508281526020810184848401111561081d5761081c61072e565b5b6108288482856107df565b509392505050565b600082601f83011261084557610844610729565b5b81356108558482602086016107ee565b91505092915050565b600080604083850312156108755761087461046a565b5b600083013567ffffffffffffffff8111156108935761089261046f565b5b61089f85828601610830565b92505060206108b085828601610495565b9150509250929050565b7f4e487b7100000000000000000000000000000000000000000000000000000000600052602260045260246000fd5b6000600282049050600182168061090157607f821691505b60208210811415610915576109146108ba565b5b5091905056fea2646970667358221220184bbb98abd7e2ca1ea64eb357940a8e98a92029d071cdf4e161fa63b362305f64736f6c634300080b0033",
  "linkReferences": {},
  "deployedLinkReferences": {}
}